{
  "_format": "hh-sol-artifact-1",
  "contractName": "NFT",
  "sourceName": "contracts/NFT.sol",
  "abi": [
    {
      "inputs": [
        {
          "internalType": "address",
          "name": "marketplaceAddress",
          "type": "address"
        }
      ],
      "stateMutability": "nonpayable",
      "type": "constructor"
    },
    {
      "anonymous": false,
      "inputs": [
        {
          "indexed": true,
          "internalType": "address",
          "name": "owner",
          "type": "address"
        },
        {
          "indexed": true,
          "internalType": "address",
          "name": "approved",
          "type": "address"
        },
        {
          "indexed": true,
          "internalType": "uint256",
          "name": "tokenId",
          "type": "uint256"
        }
      ],
      "name": "Approval",
      "type": "event"
    },
    {
      "anonymous": false,
      "inputs": [
        {
          "indexed": true,
          "internalType": "address",
          "name": "owner",
          "type": "address"
        },
        {
          "indexed": true,
          "internalType": "address",
          "name": "operator",
          "type": "address"
        },
        {
          "indexed": false,
          "internalType": "bool",
          "name": "approved",
          "type": "bool"
        }
      ],
      "name": "ApprovalForAll",
      "type": "event"
    },
    {
      "anonymous": false,
      "inputs": [
        {
          "indexed": true,
          "internalType": "uint256",
          "name": "Itemid",
          "type": "uint256"
        }
      ],
      "name": "TokenMinted",
      "type": "event"
    },
    {
      "anonymous": false,
      "inputs": [
        {
          "indexed": true,
          "internalType": "address",
          "name": "from",
          "type": "address"
        },
        {
          "indexed": true,
          "internalType": "address",
          "name": "to",
          "type": "address"
        },
        {
          "indexed": true,
          "internalType": "uint256",
          "name": "tokenId",
          "type": "uint256"
        }
      ],
      "name": "Transfer",
      "type": "event"
    },
    {
      "inputs": [
        {
          "internalType": "address",
          "name": "to",
          "type": "address"
        },
        {
          "internalType": "uint256",
          "name": "tokenId",
          "type": "uint256"
        }
      ],
      "name": "approve",
      "outputs": [],
      "stateMutability": "nonpayable",
      "type": "function"
    },
    {
      "inputs": [
        {
          "internalType": "address",
          "name": "owner",
          "type": "address"
        }
      ],
      "name": "balanceOf",
      "outputs": [
        {
          "internalType": "uint256",
          "name": "",
          "type": "uint256"
        }
      ],
      "stateMutability": "view",
      "type": "function"
    },
    {
      "inputs": [
        {
          "internalType": "uint256",
          "name": "tokenId",
          "type": "uint256"
        }
      ],
      "name": "getApproved",
      "outputs": [
        {
          "internalType": "address",
          "name": "",
          "type": "address"
        }
      ],
      "stateMutability": "view",
      "type": "function"
    },
    {
      "inputs": [
        {
          "internalType": "address",
          "name": "owner",
          "type": "address"
        },
        {
          "internalType": "address",
          "name": "operator",
          "type": "address"
        }
      ],
      "name": "isApprovedForAll",
      "outputs": [
        {
          "internalType": "bool",
          "name": "",
          "type": "bool"
        }
      ],
      "stateMutability": "view",
      "type": "function"
    },
    {
      "inputs": [
        {
          "internalType": "string",
          "name": "tokenURI",
          "type": "string"
        }
      ],
      "name": "mintToken",
      "outputs": [
        {
          "internalType": "uint256",
          "name": "",
          "type": "uint256"
        }
      ],
      "stateMutability": "nonpayable",
      "type": "function"
    },
    {
      "inputs": [],
      "name": "name",
      "outputs": [
        {
          "internalType": "string",
          "name": "",
          "type": "string"
        }
      ],
      "stateMutability": "view",
      "type": "function"
    },
    {
      "inputs": [
        {
          "internalType": "uint256",
          "name": "tokenId",
          "type": "uint256"
        }
      ],
      "name": "ownerOf",
      "outputs": [
        {
          "internalType": "address",
          "name": "",
          "type": "address"
        }
      ],
      "stateMutability": "view",
      "type": "function"
    },
    {
      "inputs": [
        {
          "internalType": "address",
          "name": "from",
          "type": "address"
        },
        {
          "internalType": "address",
          "name": "to",
          "type": "address"
        },
        {
          "internalType": "uint256",
          "name": "tokenId",
          "type": "uint256"
        }
      ],
      "name": "safeTransferFrom",
      "outputs": [],
      "stateMutability": "nonpayable",
      "type": "function"
    },
    {
      "inputs": [
        {
          "internalType": "address",
          "name": "from",
          "type": "address"
        },
        {
          "internalType": "address",
          "name": "to",
          "type": "address"
        },
        {
          "internalType": "uint256",
          "name": "tokenId",
          "type": "uint256"
        },
        {
          "internalType": "bytes",
          "name": "_data",
          "type": "bytes"
        }
      ],
      "name": "safeTransferFrom",
      "outputs": [],
      "stateMutability": "nonpayable",
      "type": "function"
    },
    {
      "inputs": [
        {
          "internalType": "address",
          "name": "operator",
          "type": "address"
        },
        {
          "internalType": "bool",
          "name": "approved",
          "type": "bool"
        }
      ],
      "name": "setApprovalForAll",
      "outputs": [],
      "stateMutability": "nonpayable",
      "type": "function"
    },
    {
      "inputs": [
        {
          "internalType": "bytes4",
          "name": "interfaceId",
          "type": "bytes4"
        }
      ],
      "name": "supportsInterface",
      "outputs": [
        {
          "internalType": "bool",
          "name": "",
          "type": "bool"
        }
      ],
      "stateMutability": "view",
      "type": "function"
    },
    {
      "inputs": [],
      "name": "symbol",
      "outputs": [
        {
          "internalType": "string",
          "name": "",
          "type": "string"
        }
      ],
      "stateMutability": "view",
      "type": "function"
    },
    {
      "inputs": [
        {
          "internalType": "uint256",
          "name": "tokenId",
          "type": "uint256"
        }
      ],
      "name": "tokenURI",
      "outputs": [
        {
          "internalType": "string",
          "name": "",
          "type": "string"
        }
      ],
      "stateMutability": "view",
      "type": "function"
    },
    {
      "inputs": [
        {
          "internalType": "address",
          "name": "from",
          "type": "address"
        },
        {
          "internalType": "address",
          "name": "to",
          "type": "address"
        },
        {
          "internalType": "uint256",
          "name": "tokenId",
          "type": "uint256"
        }
      ],
      "name": "transferFrom",
      "outputs": [],
      "stateMutability": "nonpayable",
      "type": "function"
    }
  ],
  "bytecode": "0x60806040523480156200001157600080fd5b50604051620019023803806200190283398101604081905262000034916200016c565b60405180604001604052806004815260200163536f6c6f60e01b81525060405180604001604052806004815260200163534f4c4f60e01b815250816000908051906020019062000086929190620000c6565b5080516200009c906001906020840190620000c6565b5050600880546001600160a01b0319166001600160a01b03939093169290921790915550620001d9565b828054620000d4906200019c565b90600052602060002090601f016020900481019282620000f8576000855562000143565b82601f106200011357805160ff191683800117855562000143565b8280016001018555821562000143579182015b828111156200014357825182559160200191906001019062000126565b506200015192915062000155565b5090565b5b8082111562000151576000815560010162000156565b6000602082840312156200017e578081fd5b81516001600160a01b038116811462000195578182fd5b9392505050565b600181811c90821680620001b157607f821691505b60208210811415620001d357634e487b7160e01b600052602260045260246000fd5b50919050565b61171980620001e96000396000f3fe608060405234801561001057600080fd5b50600436106100ea5760003560e01c80636352211e1161008c578063a22cb46511610066578063a22cb465146101e1578063b88d4fde146101f4578063c87b56dd14610207578063e985e9c51461021a57600080fd5b80636352211e146101b357806370a08231146101c657806395d89b41146101d957600080fd5b8063095ea7b3116100c8578063095ea7b31461015757806323b872dd1461016c57806333eba49a1461017f57806342842e0e146101a057600080fd5b806301ffc9a7146100ef57806306fdde0314610117578063081812fc1461012c575b600080fd5b6101026100fd3660046113cb565b610256565b60405190151581526020015b60405180910390f35b61011f6102a8565b60405161010e91906114f9565b61013f61013a366004611449565b61033a565b6040516001600160a01b03909116815260200161010e565b61016a6101653660046113a2565b6103c7565b005b61016a61017a3660046112b4565b6104dd565b61019261018d366004611403565b61050e565b60405190815260200161010e565b61016a6101ae3660046112b4565b610587565b61013f6101c1366004611449565b6105a2565b6101926101d4366004611268565b610619565b61011f6106a0565b61016a6101ef366004611368565b6106af565b61016a6102023660046112ef565b6106be565b61011f610215366004611449565b6106f6565b610102610228366004611282565b6001600160a01b03918216600090815260056020908152604080832093909416825291909152205460ff1690565b60006001600160e01b031982166380ac58cd60e01b148061028757506001600160e01b03198216635b5e139f60e01b145b806102a257506301ffc9a760e01b6001600160e01b03198316145b92915050565b6060600080546102b79061161e565b80601f01602080910402602001604051908101604052809291908181526020018280546102e39061161e565b80156103305780601f1061030557610100808354040283529160200191610330565b820191906000526020600020905b81548152906001019060200180831161031357829003601f168201915b5050505050905090565b60006103458261086d565b6103ab5760405162461bcd60e51b815260206004820152602c60248201527f4552433732313a20617070726f76656420717565727920666f72206e6f6e657860448201526b34b9ba32b73a103a37b5b2b760a11b60648201526084015b60405180910390fd5b506000908152600460205260409020546001600160a01b031690565b60006103d2826105a2565b9050806001600160a01b0316836001600160a01b031614156104405760405162461bcd60e51b815260206004820152602160248201527f4552433732313a20617070726f76616c20746f2063757272656e74206f776e656044820152603960f91b60648201526084016103a2565b336001600160a01b038216148061045c575061045c8133610228565b6104ce5760405162461bcd60e51b815260206004820152603860248201527f4552433732313a20617070726f76652063616c6c6572206973206e6f74206f7760448201527f6e6572206e6f7220617070726f76656420666f7220616c6c000000000000000060648201526084016103a2565b6104d8838361088a565b505050565b6104e733826108f8565b6105035760405162461bcd60e51b81526004016103a29061155e565b6104d88383836109de565b600061051e600780546001019055565b600061052960075490565b90506105353382610b7e565b61053f8184610cb1565b600854610556906001600160a01b031660016106af565b60405181907ff00d28232b285f24f2e38415deb2ceb31069e70d4505838b3911b4f02058502e90600090a292915050565b6104d8838383604051806020016040528060008152506106be565b6000818152600260205260408120546001600160a01b0316806102a25760405162461bcd60e51b815260206004820152602960248201527f4552433732313a206f776e657220717565727920666f72206e6f6e657869737460448201526832b73a103a37b5b2b760b91b60648201526084016103a2565b60006001600160a01b0382166106845760405162461bcd60e51b815260206004820152602a60248201527f4552433732313a2062616c616e636520717565727920666f7220746865207a65604482015269726f206164647265737360b01b60648201526084016103a2565b506001600160a01b031660009081526003602052604090205490565b6060600180546102b79061161e565b6106ba338383610d3c565b5050565b6106c833836108f8565b6106e45760405162461bcd60e51b81526004016103a29061155e565b6106f084848484610e0b565b50505050565b60606107018261086d565b6107675760405162461bcd60e51b815260206004820152603160248201527f45524337323155524953746f726167653a2055524920717565727920666f72206044820152703737b732bc34b9ba32b73a103a37b5b2b760791b60648201526084016103a2565b600082815260066020526040812080546107809061161e565b80601f01602080910402602001604051908101604052809291908181526020018280546107ac9061161e565b80156107f95780601f106107ce576101008083540402835291602001916107f9565b820191906000526020600020905b8154815290600101906020018083116107dc57829003601f168201915b50505050509050600061081760408051602081019091526000815290565b905080516000141561082a575092915050565b81511561085c57808260405160200161084492919061148d565b60405160208183030381529060405292505050919050565b61086584610e3e565b949350505050565b6000908152600260205260409020546001600160a01b0316151590565b600081815260046020526040902080546001600160a01b0319166001600160a01b03841690811790915581906108bf826105a2565b6001600160a01b03167f8c5be1e5ebec7d5bd14f71427d1e84f3dd0314c0f7b2291e5b200ac8c7c3b92560405160405180910390a45050565b60006109038261086d565b6109645760405162461bcd60e51b815260206004820152602c60248201527f4552433732313a206f70657261746f7220717565727920666f72206e6f6e657860448201526b34b9ba32b73a103a37b5b2b760a11b60648201526084016103a2565b600061096f836105a2565b9050806001600160a01b0316846001600160a01b031614806109aa5750836001600160a01b031661099f8461033a565b6001600160a01b0316145b8061086557506001600160a01b0380821660009081526005602090815260408083209388168352929052205460ff16610865565b826001600160a01b03166109f1826105a2565b6001600160a01b031614610a595760405162461bcd60e51b815260206004820152602960248201527f4552433732313a207472616e73666572206f6620746f6b656e2074686174206960448201526839903737ba1037bbb760b91b60648201526084016103a2565b6001600160a01b038216610abb5760405162461bcd60e51b8152602060048201526024808201527f4552433732313a207472616e7366657220746f20746865207a65726f206164646044820152637265737360e01b60648201526084016103a2565b610ac660008261088a565b6001600160a01b0383166000908152600360205260408120805460019290610aef9084906115db565b90915550506001600160a01b0382166000908152600360205260408120805460019290610b1d9084906115af565b909155505060008181526002602052604080822080546001600160a01b0319166001600160a01b0386811691821790925591518493918716917fddf252ad1be2c89b69c2b068fc378daa952ba7f163c4a11628f55a4df523b3ef91a4505050565b6001600160a01b038216610bd45760405162461bcd60e51b815260206004820181905260248201527f4552433732313a206d696e7420746f20746865207a65726f206164647265737360448201526064016103a2565b610bdd8161086d565b15610c2a5760405162461bcd60e51b815260206004820152601c60248201527f4552433732313a20746f6b656e20616c7265616479206d696e7465640000000060448201526064016103a2565b6001600160a01b0382166000908152600360205260408120805460019290610c539084906115af565b909155505060008181526002602052604080822080546001600160a01b0319166001600160a01b03861690811790915590518392907fddf252ad1be2c89b69c2b068fc378daa952ba7f163c4a11628f55a4df523b3ef908290a45050565b610cba8261086d565b610d1d5760405162461bcd60e51b815260206004820152602e60248201527f45524337323155524953746f726167653a2055524920736574206f66206e6f6e60448201526d32bc34b9ba32b73a103a37b5b2b760911b60648201526084016103a2565b600082815260066020908152604090912082516104d89284019061113d565b816001600160a01b0316836001600160a01b03161415610d9e5760405162461bcd60e51b815260206004820152601960248201527f4552433732313a20617070726f766520746f2063616c6c65720000000000000060448201526064016103a2565b6001600160a01b03838116600081815260056020908152604080832094871680845294825291829020805460ff191686151590811790915591519182527f17307eab39ab6107e8899845ad3d59bd9653f200f220920489ca2b5937696c31910160405180910390a3505050565b610e168484846109de565b610e2284848484610f16565b6106f05760405162461bcd60e51b81526004016103a29061150c565b6060610e498261086d565b610ead5760405162461bcd60e51b815260206004820152602f60248201527f4552433732314d657461646174613a2055524920717565727920666f72206e6f60448201526e3732bc34b9ba32b73a103a37b5b2b760891b60648201526084016103a2565b6000610ec460408051602081019091526000815290565b90506000815111610ee45760405180602001604052806000815250610f0f565b80610eee84611023565b604051602001610eff92919061148d565b6040516020818303038152906040525b9392505050565b60006001600160a01b0384163b1561101857604051630a85bd0160e11b81526001600160a01b0385169063150b7a0290610f5a9033908990889088906004016114bc565b602060405180830381600087803b158015610f7457600080fd5b505af1925050508015610fa4575060408051601f3d908101601f19168201909252610fa1918101906113e7565b60015b610ffe573d808015610fd2576040519150601f19603f3d011682016040523d82523d6000602084013e610fd7565b606091505b508051610ff65760405162461bcd60e51b81526004016103a29061150c565b805181602001fd5b6001600160e01b031916630a85bd0160e11b149050610865565b506001949350505050565b6060816110475750506040805180820190915260018152600360fc1b602082015290565b8160005b8115611071578061105b81611659565b915061106a9050600a836115c7565b915061104b565b60008167ffffffffffffffff81111561109a57634e487b7160e01b600052604160045260246000fd5b6040519080825280601f01601f1916602001820160405280156110c4576020820181803683370190505b5090505b8415610865576110d96001836115db565b91506110e6600a86611674565b6110f19060306115af565b60f81b81838151811061111457634e487b7160e01b600052603260045260246000fd5b60200101906001600160f81b031916908160001a905350611136600a866115c7565b94506110c8565b8280546111499061161e565b90600052602060002090601f01602090048101928261116b57600085556111b1565b82601f1061118457805160ff19168380011785556111b1565b828001600101855582156111b1579182015b828111156111b1578251825591602001919060010190611196565b506111bd9291506111c1565b5090565b5b808211156111bd57600081556001016111c2565b600067ffffffffffffffff808411156111f1576111f16116b4565b604051601f8501601f19908116603f01168101908282118183101715611219576112196116b4565b8160405280935085815286868601111561123257600080fd5b858560208301376000602087830101525050509392505050565b80356001600160a01b038116811461126357600080fd5b919050565b600060208284031215611279578081fd5b610f0f8261124c565b60008060408385031215611294578081fd5b61129d8361124c565b91506112ab6020840161124c565b90509250929050565b6000806000606084860312156112c8578081fd5b6112d18461124c565b92506112df6020850161124c565b9150604084013590509250925092565b60008060008060808587031215611304578081fd5b61130d8561124c565b935061131b6020860161124c565b925060408501359150606085013567ffffffffffffffff81111561133d578182fd5b8501601f8101871361134d578182fd5b61135c878235602084016111d6565b91505092959194509250565b6000806040838503121561137a578182fd5b6113838361124c565b915060208301358015158114611397578182fd5b809150509250929050565b600080604083850312156113b4578182fd5b6113bd8361124c565b946020939093013593505050565b6000602082840312156113dc578081fd5b8135610f0f816116ca565b6000602082840312156113f8578081fd5b8151610f0f816116ca565b600060208284031215611414578081fd5b813567ffffffffffffffff81111561142a578182fd5b8201601f8101841361143a578182fd5b610865848235602084016111d6565b60006020828403121561145a578081fd5b5035919050565b600081518084526114798160208601602086016115f2565b601f01601f19169290920160200192915050565b6000835161149f8184602088016115f2565b8351908301906114b38183602088016115f2565b01949350505050565b6001600160a01b03858116825284166020820152604081018390526080606082018190526000906114ef90830184611461565b9695505050505050565b602081526000610f0f6020830184611461565b60208082526032908201527f4552433732313a207472616e7366657220746f206e6f6e20455243373231526560408201527131b2b4bb32b91034b6b83632b6b2b73a32b960711b606082015260800190565b60208082526031908201527f4552433732313a207472616e736665722063616c6c6572206973206e6f74206f6040820152701ddb995c881b9bdc88185c1c1c9bdd9959607a1b606082015260800190565b600082198211156115c2576115c2611688565b500190565b6000826115d6576115d661169e565b500490565b6000828210156115ed576115ed611688565b500390565b60005b8381101561160d5781810151838201526020016115f5565b838111156106f05750506000910152565b600181811c9082168061163257607f821691505b6020821081141561165357634e487b7160e01b600052602260045260246000fd5b50919050565b600060001982141561166d5761166d611688565b5060010190565b6000826116835761168361169e565b500690565b634e487b7160e01b600052601160045260246000fd5b634e487b7160e01b600052601260045260246000fd5b634e487b7160e01b600052604160045260246000fd5b6001600160e01b0319811681146116e057600080fd5b5056fea2646970667358221220b62183f55330e2057928730ba6cd9fa55352ef4c5530814cdcb993b8cf76481964736f6c63430008040033",
  "linkReferences": {},
  "deployedLinkReferences": {}
}