{
  "_format": "hh-sol-artifact-1",
  "contractName": "MarketPlace",
  "sourceName": "contracts/MarketPlace.sol",
  "abi": [
    {
      "inputs": [],
      "stateMutability": "nonpayable",
      "type": "constructor"
    },
    {
      "anonymous": false,
      "inputs": [
        {
          "indexed": true,
          "internalType": "uint256",
          "name": "itemId",
          "type": "uint256"
        },
        {
          "indexed": true,
          "internalType": "address",
          "name": "nftContract",
          "type": "address"
        },
        {
          "indexed": true,
          "internalType": "uint256",
          "name": "tokenId",
          "type": "uint256"
        },
        {
          "indexed": false,
          "internalType": "address",
          "name": "seller",
          "type": "address"
        },
        {
          "indexed": false,
          "internalType": "address",
          "name": "owner",
          "type": "address"
        },
        {
          "indexed": false,
          "internalType": "uint256",
          "name": "price",
          "type": "uint256"
        },
        {
          "indexed": false,
          "internalType": "bool",
          "name": "sold",
          "type": "bool"
        }
      ],
      "name": "MarketTokenMinted",
      "type": "event"
    },
    {
      "inputs": [
        {
          "internalType": "address",
          "name": "nftContract",
          "type": "address"
        },
        {
          "internalType": "uint256",
          "name": "tokenId",
          "type": "uint256"
        },
        {
          "internalType": "uint256",
          "name": "price",
          "type": "uint256"
        }
      ],
      "name": "createMarketOrder",
      "outputs": [],
      "stateMutability": "payable",
      "type": "function"
    },
    {
      "inputs": [],
      "name": "fetchItemsCreated",
      "outputs": [
        {
          "components": [
            {
              "internalType": "uint256",
              "name": "itemId",
              "type": "uint256"
            },
            {
              "internalType": "address",
              "name": "nftContract",
              "type": "address"
            },
            {
              "internalType": "uint256",
              "name": "tokenId",
              "type": "uint256"
            },
            {
              "internalType": "address",
              "name": "seller",
              "type": "address"
            },
            {
              "internalType": "address",
              "name": "owner",
              "type": "address"
            },
            {
              "internalType": "uint256",
              "name": "price",
              "type": "uint256"
            },
            {
              "internalType": "bool",
              "name": "sold",
              "type": "bool"
            }
          ],
          "internalType": "struct MarketPlace.MarketToken[]",
          "name": "",
          "type": "tuple[]"
        }
      ],
      "stateMutability": "view",
      "type": "function"
    },
    {
      "inputs": [],
      "name": "fetchTokens",
      "outputs": [
        {
          "components": [
            {
              "internalType": "uint256",
              "name": "itemId",
              "type": "uint256"
            },
            {
              "internalType": "address",
              "name": "nftContract",
              "type": "address"
            },
            {
              "internalType": "uint256",
              "name": "tokenId",
              "type": "uint256"
            },
            {
              "internalType": "address",
              "name": "seller",
              "type": "address"
            },
            {
              "internalType": "address",
              "name": "owner",
              "type": "address"
            },
            {
              "internalType": "uint256",
              "name": "price",
              "type": "uint256"
            },
            {
              "internalType": "bool",
              "name": "sold",
              "type": "bool"
            }
          ],
          "internalType": "struct MarketPlace.MarketToken[]",
          "name": "",
          "type": "tuple[]"
        }
      ],
      "stateMutability": "view",
      "type": "function"
    },
    {
      "inputs": [],
      "name": "fetchUserCollections",
      "outputs": [
        {
          "components": [
            {
              "internalType": "uint256",
              "name": "itemId",
              "type": "uint256"
            },
            {
              "internalType": "address",
              "name": "nftContract",
              "type": "address"
            },
            {
              "internalType": "uint256",
              "name": "tokenId",
              "type": "uint256"
            },
            {
              "internalType": "address",
              "name": "seller",
              "type": "address"
            },
            {
              "internalType": "address",
              "name": "owner",
              "type": "address"
            },
            {
              "internalType": "uint256",
              "name": "price",
              "type": "uint256"
            },
            {
              "internalType": "bool",
              "name": "sold",
              "type": "bool"
            }
          ],
          "internalType": "struct MarketPlace.MarketToken[]",
          "name": "",
          "type": "tuple[]"
        }
      ],
      "stateMutability": "view",
      "type": "function"
    },
    {
      "inputs": [],
      "name": "getListingPrice",
      "outputs": [
        {
          "internalType": "uint256",
          "name": "",
          "type": "uint256"
        }
      ],
      "stateMutability": "view",
      "type": "function"
    },
    {
      "inputs": [
        {
          "internalType": "address",
          "name": "nftContract",
          "type": "address"
        },
        {
          "internalType": "uint256",
          "name": "_itemId",
          "type": "uint256"
        }
      ],
      "name": "sell",
      "outputs": [],
      "stateMutability": "payable",
      "type": "function"
    }
  ],
  "bytecode": "0x608060405234801561001057600080fd5b506001600055600380546001600160a01b03191633179055669fdf42f6e48000600455610d3a806100426000396000f3fe6080604052600436106100555760003560e01c806312e855851461005a5780631f539de31461007d5780635ae821d41461009f5780636c197ff5146100b4578063cd84f597146100c7578063f064c32e146100dc575b600080fd5b34801561006657600080fd5b506004546040519081526020015b60405180910390f35b34801561008957600080fd5b506100926100f1565b6040516100749190610c10565b6100b26100ad366004610bde565b6102f4565b005b6100b26100c2366004610bb5565b610584565b3480156100d357600080fd5b506100926107d8565b3480156100e857600080fd5b50610092610977565b606060006100fe60015490565b905060008060005b8381101561016157336005600061011e846001610ca4565b81526020810191909152604001600020600401546001600160a01b0316141561014f578261014b81610cd3565b9350505b8061015981610cd3565b915050610106565b5060008267ffffffffffffffff81111561018b57634e487b7160e01b600052604160045260246000fd5b6040519080825280602002602001820160405280156101c457816020015b6101b1610b5d565b8152602001906001900390816101a95790505b50905060005b848110156102eb5733600560006101e2846001610ca4565b81526020810191909152604001600020600401546001600160a01b031614156102d957600560008181610216856001610ca4565b81526020808201929092526040908101600090812054845283830194909452918201909220815160e0810183528154815260018201546001600160a01b039081169482019490945260028201549281019290925260038101548316606083015260048101549092166080820152600582015460a082015260069091015460ff16151560c082015282518390859081106102bf57634e487b7160e01b600052603260045260246000fd5b602002602001018190525082806102d590610cd3565b9350505b806102e381610cd3565b9150506101ca565b50949350505050565b6002600054141561034c5760405162461bcd60e51b815260206004820152601f60248201527f5265656e7472616e637947756172643a207265656e7472616e742063616c6c0060448201526064015b60405180910390fd5b60026000558061038e5760405162461bcd60e51b815260206004820152600d60248201526c696e76616c696420707269636560981b6044820152606401610343565b60045434146103eb5760405162461bcd60e51b8152602060048201526024808201527f5072696365206d75737420626520657175616c20746f206c697374696e6720706044820152637269636560e01b6064820152608401610343565b6103f9600180546001019055565b600061040460015490565b6040805160e0810182528281526001600160a01b0387811660208084018281528486018a8152336060870181815260006080890181815260a08a018e815260c08b018381528d8452600598899052928c90209a518b55955160018b018054918b166001600160a01b0319928316179055945160028b0155915160038a018054918a1691861691909117905590516004808a01805492909916919094161790965591519286019290925592516006909401805494151560ff199095169490941790935592516323b872dd60e01b81529182015230602482015260448101869052919250906323b872dd90606401600060405180830381600087803b15801561050a57600080fd5b505af115801561051e573d6000803e3d6000fd5b505060408051338152600060208201819052818301879052606082015290518693506001600160a01b038816925084917fcd9b0dfebab7db4dbe70606f69fadc8e987e7c80a65410f0bb5ae8bd72dabba7919081900360800190a4505060016000555050565b600260005414156105d75760405162461bcd60e51b815260206004820152601f60248201527f5265656e7472616e637947756172643a207265656e7472616e742063616c6c006044820152606401610343565b60026000908155818152600560205260409020600301546001600160a01b0316338114156106475760405162461bcd60e51b815260206004820152601a60248201527f596f75722061726520616c726561647920746865206f776e65720000000000006044820152606401610343565b600082815260056020819052604090912090810154600290910154348211156106a25760405162461bcd60e51b815260206004820152600d60248201526c696e76616c696420707269636560981b6044820152606401610343565b6000848152600560205260408082206003015490516001600160a01b03909116913480156108fc02929091818181858888f193505050501580156106ea573d6000803e3d6000fd5b506040516323b872dd60e01b8152306004820152336024820152604481018290526001600160a01b038616906323b872dd90606401600060405180830381600087803b15801561073957600080fd5b505af115801561074d573d6000803e3d6000fd5b50505060008581526005602052604090206004810180546001600160a01b03191633179055600601805460ff191660011790555061078f600280546001019055565b6003546004546040516001600160a01b039092169181156108fc0291906000818181858888f193505050501580156107cb573d6000803e3d6000fd5b5050600160005550505050565b606060006107e560015490565b905060006107f260025490565b6001546107ff9190610cbc565b90506000808267ffffffffffffffff81111561082b57634e487b7160e01b600052604160045260246000fd5b60405190808252806020026020018201604052801561086457816020015b610851610b5d565b8152602001906001900390816108495790505b50905060005b848110156102eb576000600581610882846001610ca4565b81526020810191909152604001600020600401546001600160a01b0316141561096557600560006108b4836001610ca4565b81526020808201929092526040908101600020815160e0810183528154815260018201546001600160a01b039081169482019490945260028201549281019290925260038101548316606083015260048101549092166080820152600582015460a082015260069091015460ff16151560c0820152825183908590811061094b57634e487b7160e01b600052603260045260246000fd5b6020026020010181905250828061096190610cd3565b9350505b8061096f81610cd3565b91505061086a565b6060600061098460015490565b905060008060005b838110156109e75733600560006109a4846001610ca4565b81526020810191909152604001600020600301546001600160a01b031614156109d557826109d181610cd3565b9350505b806109df81610cd3565b91505061098c565b5060008267ffffffffffffffff811115610a1157634e487b7160e01b600052604160045260246000fd5b604051908082528060200260200182016040528015610a4a57816020015b610a37610b5d565b815260200190600190039081610a2f5790505b50905060005b848110156102eb573360056000610a68846001610ca4565b81526020810191909152604001600020600301546001600160a01b03161415610b4b5760056000610a9a836001610ca4565b81526020808201929092526040908101600020815160e0810183528154815260018201546001600160a01b039081169482019490945260028201549281019290925260038101548316606083015260048101549092166080820152600582015460a082015260069091015460ff16151560c08201528251839085908110610b3157634e487b7160e01b600052603260045260246000fd5b60200260200101819052508280610b4790610cd3565b9350505b80610b5581610cd3565b915050610a50565b6040805160e081018252600080825260208201819052918101829052606081018290526080810182905260a0810182905260c081019190915290565b80356001600160a01b0381168114610bb057600080fd5b919050565b60008060408385031215610bc7578182fd5b610bd083610b99565b946020939093013593505050565b600080600060608486031215610bf2578081fd5b610bfb84610b99565b95602085013595506040909401359392505050565b602080825282518282018190526000919060409081850190868401855b82811015610c9757815180518552868101516001600160a01b039081168887015286820151878701526060808301518216908701526080808301519091169086015260a0808201519086015260c09081015115159085015260e09093019290850190600101610c2d565b5091979650505050505050565b60008219821115610cb757610cb7610cee565b500190565b600082821015610cce57610cce610cee565b500390565b6000600019821415610ce757610ce7610cee565b5060010190565b634e487b7160e01b600052601160045260246000fdfea2646970667358221220b30ae7d87306da069fbb46a01dc985678367e364c7318c69795c493ca086f35864736f6c63430008040033",
  "linkReferences": {},
  "deployedLinkReferences": {}
}